{
  "_format": "hh-sol-artifact-1",
  "contractName": "Token",
  "sourceName": "contracts/ERC20.sol",
  "abi": [
    {
      "inputs": [],
      "stateMutability": "nonpayable",
      "type": "constructor"
    },
    {
      "anonymous": false,
      "inputs": [
        {
          "indexed": true,
          "internalType": "address",
          "name": "from",
          "type": "address"
        },
        {
          "indexed": true,
          "internalType": "address",
          "name": "to",
          "type": "address"
        },
        {
          "indexed": false,
          "internalType": "uint256",
          "name": "value",
          "type": "uint256"
        }
      ],
      "name": "Transfer",
      "type": "event"
    },
    {
      "inputs": [
        {
          "internalType": "address",
          "name": "",
          "type": "address"
        }
      ],
      "name": "balanceOf",
      "outputs": [
        {
          "internalType": "uint256",
          "name": "",
          "type": "uint256"
        }
      ],
      "stateMutability": "view",
      "type": "function"
    },
    {
      "inputs": [],
      "name": "decimals",
      "outputs": [
        {
          "internalType": "uint8",
          "name": "",
          "type": "uint8"
        }
      ],
      "stateMutability": "view",
      "type": "function"
    },
    {
      "inputs": [
        {
          "internalType": "address",
          "name": "to",
          "type": "address"
        },
        {
          "internalType": "uint256",
          "name": "tokens",
          "type": "uint256"
        }
      ],
      "name": "mint",
      "outputs": [],
      "stateMutability": "nonpayable",
      "type": "function"
    },
    {
      "inputs": [],
      "name": "name",
      "outputs": [
        {
          "internalType": "string",
          "name": "",
          "type": "string"
        }
      ],
      "stateMutability": "view",
      "type": "function"
    },
    {
      "inputs": [],
      "name": "owner",
      "outputs": [
        {
          "internalType": "address",
          "name": "",
          "type": "address"
        }
      ],
      "stateMutability": "view",
      "type": "function"
    },
    {
      "inputs": [],
      "name": "symbol",
      "outputs": [
        {
          "internalType": "string",
          "name": "",
          "type": "string"
        }
      ],
      "stateMutability": "view",
      "type": "function"
    },
    {
      "inputs": [],
      "name": "totalSupply",
      "outputs": [
        {
          "internalType": "uint256",
          "name": "",
          "type": "uint256"
        }
      ],
      "stateMutability": "view",
      "type": "function"
    },
    {
      "inputs": [
        {
          "internalType": "address",
          "name": "to",
          "type": "address"
        },
        {
          "internalType": "uint256",
          "name": "value",
          "type": "uint256"
        }
      ],
      "name": "transfer",
      "outputs": [
        {
          "internalType": "bool",
          "name": "",
          "type": "bool"
        }
      ],
      "stateMutability": "nonpayable",
      "type": "function"
    }
  ],
  "bytecode": "0x60806040523480156200001157600080fd5b506040518060400160405280600981526020017f43796265726d6174650000000000000000000000000000000000000000000000815250600090805190602001906200005f929190620001c9565b506040518060400160405280600381526020017f434d54000000000000000000000000000000000000000000000000000000000081525060019080519060200190620000ad929190620001c9565b506000600260006101000a81548160ff021916908360ff16021790555061271060038190555033600460006101000a81548173ffffffffffffffffffffffffffffffffffffffff021916908373ffffffffffffffffffffffffffffffffffffffff160217905550600354600560003373ffffffffffffffffffffffffffffffffffffffff1673ffffffffffffffffffffffffffffffffffffffff168152602001908152602001600020819055503373ffffffffffffffffffffffffffffffffffffffff163073ffffffffffffffffffffffffffffffffffffffff167fddf252ad1be2c89b69c2b068fc378daa952ba7f163c4a11628f55a4df523b3ef600354604051620001bb919062000294565b60405180910390a362000316565b828054620001d790620002e0565b90600052602060002090601f016020900481019282620001fb576000855562000247565b82601f106200021657805160ff191683800117855562000247565b8280016001018555821562000247579182015b828111156200024657825182559160200191906001019062000229565b5b5090506200025691906200025a565b5090565b5b80821115620002755760008160009055506001016200025b565b5090565b6000819050919050565b6200028e8162000279565b82525050565b6000602082019050620002ab600083018462000283565b92915050565b7f4e487b7100000000000000000000000000000000000000000000000000000000600052602260045260246000fd5b60006002820490506001821680620002f957607f821691505b6020821081141562000310576200030f620002b1565b5b50919050565b610ac380620003266000396000f3fe608060405234801561001057600080fd5b50600436106100885760003560e01c806370a082311161005b57806370a08231146101035780638da5cb5b1461013357806395d89b4114610151578063a9059cbb1461016f57610088565b806306fdde031461008d57806318160ddd146100ab578063313ce567146100c957806340c10f19146100e7575b600080fd5b61009561019f565b6040516100a291906106b2565b60405180910390f35b6100b361022d565b6040516100c091906106ed565b60405180910390f35b6100d1610233565b6040516100de9190610724565b60405180910390f35b61010160048036038101906100fc91906107ce565b610246565b005b61011d6004803603810190610118919061080e565b6103ae565b60405161012a91906106ed565b60405180910390f35b61013b6103c6565b604051610148919061084a565b60405180910390f35b6101596103ec565b60405161016691906106b2565b60405180910390f35b610189600480360381019061018491906107ce565b61047a565b6040516101969190610880565b60405180910390f35b600080546101ac906108ca565b80601f01602080910402602001604051908101604052809291908181526020018280546101d8906108ca565b80156102255780601f106101fa57610100808354040283529160200191610225565b820191906000526020600020905b81548152906001019060200180831161020857829003601f168201915b505050505081565b60035481565b600260009054906101000a900460ff1681565b600460009054906101000a900473ffffffffffffffffffffffffffffffffffffffff1673ffffffffffffffffffffffffffffffffffffffff163373ffffffffffffffffffffffffffffffffffffffff16146102d6576040517f08c379a00000000000000000000000000000000000000000000000000000000081526004016102cd90610948565b60405180910390fd5b80600360008282546102e89190610997565b9250508190555080600560008473ffffffffffffffffffffffffffffffffffffffff1673ffffffffffffffffffffffffffffffffffffffff168152602001908152602001600020600082825461033e9190610997565b925050819055508173ffffffffffffffffffffffffffffffffffffffff163073ffffffffffffffffffffffffffffffffffffffff167fddf252ad1be2c89b69c2b068fc378daa952ba7f163c4a11628f55a4df523b3ef836040516103a291906106ed565b60405180910390a35050565b60056020528060005260406000206000915090505481565b600460009054906101000a900473ffffffffffffffffffffffffffffffffffffffff1681565b600180546103f9906108ca565b80601f0160208091040260200160405190810160405280929190818152602001828054610425906108ca565b80156104725780601f1061044757610100808354040283529160200191610472565b820191906000526020600020905b81548152906001019060200180831161045557829003601f168201915b505050505081565b600081600560003373ffffffffffffffffffffffffffffffffffffffff1673ffffffffffffffffffffffffffffffffffffffff1681526020019081526020016000205410156104fe576040517f08c379a00000000000000000000000000000000000000000000000000000000081526004016104f590610a39565b60405180910390fd5b81600560003373ffffffffffffffffffffffffffffffffffffffff1673ffffffffffffffffffffffffffffffffffffffff168152602001908152602001600020600082825461054d9190610a59565b9250508190555081600560008573ffffffffffffffffffffffffffffffffffffffff1673ffffffffffffffffffffffffffffffffffffffff16815260200190815260200160002060008282546105a39190610997565b925050819055508273ffffffffffffffffffffffffffffffffffffffff163373ffffffffffffffffffffffffffffffffffffffff167fddf252ad1be2c89b69c2b068fc378daa952ba7f163c4a11628f55a4df523b3ef8460405161060791906106ed565b60405180910390a36001905092915050565b600081519050919050565b600082825260208201905092915050565b60005b83811015610653578082015181840152602081019050610638565b83811115610662576000848401525b50505050565b6000601f19601f8301169050919050565b600061068482610619565b61068e8185610624565b935061069e818560208601610635565b6106a781610668565b840191505092915050565b600060208201905081810360008301526106cc8184610679565b905092915050565b6000819050919050565b6106e7816106d4565b82525050565b600060208201905061070260008301846106de565b92915050565b600060ff82169050919050565b61071e81610708565b82525050565b60006020820190506107396000830184610715565b92915050565b600080fd5b600073ffffffffffffffffffffffffffffffffffffffff82169050919050565b600061076f82610744565b9050919050565b61077f81610764565b811461078a57600080fd5b50565b60008135905061079c81610776565b92915050565b6107ab816106d4565b81146107b657600080fd5b50565b6000813590506107c8816107a2565b92915050565b600080604083850312156107e5576107e461073f565b5b60006107f38582860161078d565b9250506020610804858286016107b9565b9150509250929050565b6000602082840312156108245761082361073f565b5b60006108328482850161078d565b91505092915050565b61084481610764565b82525050565b600060208201905061085f600083018461083b565b92915050565b60008115159050919050565b61087a81610865565b82525050565b60006020820190506108956000830184610871565b92915050565b7f4e487b7100000000000000000000000000000000000000000000000000000000600052602260045260246000fd5b600060028204905060018216806108e257607f821691505b602082108114156108f6576108f561089b565b5b50919050565b7f4f6e6c79206f776e65722063616e206d696e74206e657720746f6b656e730000600082015250565b6000610932601e83610624565b915061093d826108fc565b602082019050919050565b6000602082019050818103600083015261096181610925565b9050919050565b7f4e487b7100000000000000000000000000000000000000000000000000000000600052601160045260246000fd5b60006109a2826106d4565b91506109ad836106d4565b9250827fffffffffffffffffffffffffffffffffffffffffffffffffffffffffffffffff038211156109e2576109e1610968565b5b828201905092915050565b7f496e73756666696369656e742062616c616e6365000000000000000000000000600082015250565b6000610a23601483610624565b9150610a2e826109ed565b602082019050919050565b60006020820190508181036000830152610a5281610a16565b9050919050565b6000610a64826106d4565b9150610a6f836106d4565b925082821015610a8257610a81610968565b5b82820390509291505056fea2646970667358221220be01a0401d0cb45710158cee5c20a901e389e673e7d33ad8659aad91cca8ff2764736f6c63430008090033",
  "linkReferences": {},
  "deployedLinkReferences": {}
}