{
  "_format": "hh-sol-artifact-1",
  "contractName": "Escrow",
  "sourceName": "contracts/Escrow.sol",
  "abi": [
    {
      "inputs": [
        {
          "internalType": "address",
          "name": "_tokenContract",
          "type": "address"
        }
      ],
      "stateMutability": "nonpayable",
      "type": "constructor"
    },
    {
      "anonymous": false,
      "inputs": [
        {
          "indexed": true,
          "internalType": "address",
          "name": "seller",
          "type": "address"
        },
        {
          "indexed": false,
          "internalType": "uint256",
          "name": "sellerAmount",
          "type": "uint256"
        }
      ],
      "name": "ServiceCompleted",
      "type": "event"
    },
    {
      "anonymous": false,
      "inputs": [
        {
          "indexed": true,
          "internalType": "address",
          "name": "buyer",
          "type": "address"
        },
        {
          "indexed": true,
          "internalType": "address",
          "name": "seller",
          "type": "address"
        },
        {
          "indexed": false,
          "internalType": "uint256",
          "name": "serviceAmount",
          "type": "uint256"
        }
      ],
      "name": "ServiceCreated",
      "type": "event"
    },
    {
      "inputs": [],
      "name": "cancelService",
      "outputs": [],
      "stateMutability": "nonpayable",
      "type": "function"
    },
    {
      "inputs": [],
      "name": "completeService",
      "outputs": [],
      "stateMutability": "nonpayable",
      "type": "function"
    },
    {
      "inputs": [
        {
          "internalType": "address",
          "name": "_seller",
          "type": "address"
        },
        {
          "internalType": "uint256",
          "name": "_serviceAmount",
          "type": "uint256"
        }
      ],
      "name": "createService",
      "outputs": [],
      "stateMutability": "nonpayable",
      "type": "function"
    },
    {
      "inputs": [
        {
          "internalType": "address",
          "name": "",
          "type": "address"
        }
      ],
      "name": "escrows",
      "outputs": [
        {
          "internalType": "address",
          "name": "seller",
          "type": "address"
        },
        {
          "internalType": "uint256",
          "name": "serviceAmount",
          "type": "uint256"
        },
        {
          "internalType": "bool",
          "name": "serviceCompleted",
          "type": "bool"
        }
      ],
      "stateMutability": "view",
      "type": "function"
    },
    {
      "inputs": [],
      "name": "platform",
      "outputs": [
        {
          "internalType": "address",
          "name": "",
          "type": "address"
        }
      ],
      "stateMutability": "view",
      "type": "function"
    },
    {
      "inputs": [],
      "name": "tokenContract",
      "outputs": [
        {
          "internalType": "contract CyberMate",
          "name": "",
          "type": "address"
        }
      ],
      "stateMutability": "view",
      "type": "function"
    }
  ],
  "bytecode": "0x60806040523480156200001157600080fd5b506040516200145838038062001458833981810160405281019062000037919062000129565b336000806101000a81548173ffffffffffffffffffffffffffffffffffffffff021916908373ffffffffffffffffffffffffffffffffffffffff16021790555080600160006101000a81548173ffffffffffffffffffffffffffffffffffffffff021916908373ffffffffffffffffffffffffffffffffffffffff160217905550506200015b565b600080fd5b600073ffffffffffffffffffffffffffffffffffffffff82169050919050565b6000620000f182620000c4565b9050919050565b6200010381620000e4565b81146200010f57600080fd5b50565b6000815190506200012381620000f8565b92915050565b600060208284031215620001425762000141620000bf565b5b6000620001528482850162000112565b91505092915050565b6112ed806200016b6000396000f3fe608060405234801561001057600080fd5b50600436106100625760003560e01c80630d73f010146100675780631cc0327314610071578063477230b21461007b5780634bde38c8146100ad57806355a373d6146100cb5780637a564df6146100e9575b600080fd5b61006f610105565b005b610079610526565b005b61009560048036038101906100909190610c59565b610797565b6040516100a493929190610cc9565b60405180910390f35b6100b56107ee565b6040516100c29190610d00565b60405180910390f35b6100d3610812565b6040516100e09190610d7a565b60405180910390f35b61010360048036038101906100fe9190610dc1565b610838565b005b60003390506000600260008373ffffffffffffffffffffffffffffffffffffffff1673ffffffffffffffffffffffffffffffffffffffff1681526020019081526020016000209050600073ffffffffffffffffffffffffffffffffffffffff168160000160009054906101000a900473ffffffffffffffffffffffffffffffffffffffff1673ffffffffffffffffffffffffffffffffffffffff1614156101e1576040517f08c379a00000000000000000000000000000000000000000000000000000000081526004016101d890610e84565b60405180910390fd5b8060020160009054906101000a900460ff1615610233576040517f08c379a000000000000000000000000000000000000000000000000000000000815260040161022a90610f16565b60405180910390fd5b60018160020160006101000a81548160ff02191690831515021790555060006064605f83600101546102659190610f65565b61026f9190610fee565b90506000818360010154610283919061101f565b9050600160009054906101000a900473ffffffffffffffffffffffffffffffffffffffff1673ffffffffffffffffffffffffffffffffffffffff1663a9059cbb8460000160009054906101000a900473ffffffffffffffffffffffffffffffffffffffff16846040518363ffffffff1660e01b8152600401610306929190611053565b602060405180830381600087803b15801561032057600080fd5b505af1158015610334573d6000803e3d6000fd5b505050506040513d601f19601f8201168201806040525081019061035891906110a8565b50600160009054906101000a900473ffffffffffffffffffffffffffffffffffffffff1673ffffffffffffffffffffffffffffffffffffffff1663a9059cbb60008054906101000a900473ffffffffffffffffffffffffffffffffffffffff16836040518363ffffffff1660e01b81526004016103d6929190611053565b602060405180830381600087803b1580156103f057600080fd5b505af1158015610404573d6000803e3d6000fd5b505050506040513d601f19601f8201168201806040525081019061042891906110a8565b508260000160009054906101000a900473ffffffffffffffffffffffffffffffffffffffff1673ffffffffffffffffffffffffffffffffffffffff167f3249a67cddda72f0bd8f498de732a23ba6cebf645019e509e08673af64deaaa18360405161049391906110d5565b60405180910390a2600260008573ffffffffffffffffffffffffffffffffffffffff1673ffffffffffffffffffffffffffffffffffffffff168152602001908152602001600020600080820160006101000a81549073ffffffffffffffffffffffffffffffffffffffff021916905560018201600090556002820160006101000a81549060ff0219169055505050505050565b60003390506000600260008373ffffffffffffffffffffffffffffffffffffffff1673ffffffffffffffffffffffffffffffffffffffff1681526020019081526020016000209050600073ffffffffffffffffffffffffffffffffffffffff168160000160009054906101000a900473ffffffffffffffffffffffffffffffffffffffff1673ffffffffffffffffffffffffffffffffffffffff161415610602576040517f08c379a00000000000000000000000000000000000000000000000000000000081526004016105f990610e84565b60405180910390fd5b8060020160009054906101000a900460ff1615610654576040517f08c379a000000000000000000000000000000000000000000000000000000000815260040161064b90610f16565b60405180910390fd5b600081600101549050600160009054906101000a900473ffffffffffffffffffffffffffffffffffffffff1673ffffffffffffffffffffffffffffffffffffffff1663a9059cbb84836040518363ffffffff1660e01b81526004016106ba929190611053565b602060405180830381600087803b1580156106d457600080fd5b505af11580156106e8573d6000803e3d6000fd5b505050506040513d601f19601f8201168201806040525081019061070c91906110a8565b50600260008473ffffffffffffffffffffffffffffffffffffffff1673ffffffffffffffffffffffffffffffffffffffff168152602001908152602001600020600080820160006101000a81549073ffffffffffffffffffffffffffffffffffffffff021916905560018201600090556002820160006101000a81549060ff02191690555050505050565b60026020528060005260406000206000915090508060000160009054906101000a900473ffffffffffffffffffffffffffffffffffffffff16908060010154908060020160009054906101000a900460ff16905083565b60008054906101000a900473ffffffffffffffffffffffffffffffffffffffff1681565b600160009054906101000a900473ffffffffffffffffffffffffffffffffffffffff1681565b600073ffffffffffffffffffffffffffffffffffffffff168273ffffffffffffffffffffffffffffffffffffffff1614156108a8576040517f08c379a000000000000000000000000000000000000000000000000000000000815260040161089f9061113c565b60405180910390fd5b600081116108eb576040517f08c379a00000000000000000000000000000000000000000000000000000000081526004016108e2906111ce565b60405180910390fd5b6000600260003373ffffffffffffffffffffffffffffffffffffffff1673ffffffffffffffffffffffffffffffffffffffff1681526020019081526020016000209050600073ffffffffffffffffffffffffffffffffffffffff168160000160009054906101000a900473ffffffffffffffffffffffffffffffffffffffff1673ffffffffffffffffffffffffffffffffffffffff16146109c1576040517f08c379a00000000000000000000000000000000000000000000000000000000081526004016109b890611260565b60405180910390fd5b828160000160006101000a81548173ffffffffffffffffffffffffffffffffffffffff021916908373ffffffffffffffffffffffffffffffffffffffff16021790555081816001018190555060008160020160006101000a81548160ff021916908315150217905550600160009054906101000a900473ffffffffffffffffffffffffffffffffffffffff1673ffffffffffffffffffffffffffffffffffffffff1663095ea7b330846040518363ffffffff1660e01b8152600401610a87929190611053565b602060405180830381600087803b158015610aa157600080fd5b505af1158015610ab5573d6000803e3d6000fd5b505050506040513d601f19601f82011682018060405250810190610ad991906110a8565b50600160009054906101000a900473ffffffffffffffffffffffffffffffffffffffff1673ffffffffffffffffffffffffffffffffffffffff166323b872dd3330856040518463ffffffff1660e01b8152600401610b3993929190611280565b602060405180830381600087803b158015610b5357600080fd5b505af1158015610b67573d6000803e3d6000fd5b505050506040513d601f19601f82011682018060405250810190610b8b91906110a8565b508273ffffffffffffffffffffffffffffffffffffffff163373ffffffffffffffffffffffffffffffffffffffff167f7a970c0e53a68d9c6a568e1dc02bcaf8c90189259715100844da60b1221fd4d084604051610be991906110d5565b60405180910390a3505050565b600080fd5b600073ffffffffffffffffffffffffffffffffffffffff82169050919050565b6000610c2682610bfb565b9050919050565b610c3681610c1b565b8114610c4157600080fd5b50565b600081359050610c5381610c2d565b92915050565b600060208284031215610c6f57610c6e610bf6565b5b6000610c7d84828501610c44565b91505092915050565b610c8f81610c1b565b82525050565b6000819050919050565b610ca881610c95565b82525050565b60008115159050919050565b610cc381610cae565b82525050565b6000606082019050610cde6000830186610c86565b610ceb6020830185610c9f565b610cf86040830184610cba565b949350505050565b6000602082019050610d156000830184610c86565b92915050565b6000819050919050565b6000610d40610d3b610d3684610bfb565b610d1b565b610bfb565b9050919050565b6000610d5282610d25565b9050919050565b6000610d6482610d47565b9050919050565b610d7481610d59565b82525050565b6000602082019050610d8f6000830184610d6b565b92915050565b610d9e81610c95565b8114610da957600080fd5b50565b600081359050610dbb81610d95565b92915050565b60008060408385031215610dd857610dd7610bf6565b5b6000610de685828601610c44565b9250506020610df785828601610dac565b9150509250929050565b600082825260208201905092915050565b7f4e6f20736572766963652064657461696c7320666f756e6420666f722074686560008201527f2062757965720000000000000000000000000000000000000000000000000000602082015250565b6000610e6e602683610e01565b9150610e7982610e12565b604082019050919050565b60006020820190508181036000830152610e9d81610e61565b9050919050565b7f536572766963652068617320616c7265616479206265656e20636f6d706c657460008201527f6564000000000000000000000000000000000000000000000000000000000000602082015250565b6000610f00602283610e01565b9150610f0b82610ea4565b604082019050919050565b60006020820190508181036000830152610f2f81610ef3565b9050919050565b7f4e487b7100000000000000000000000000000000000000000000000000000000600052601160045260246000fd5b6000610f7082610c95565b9150610f7b83610c95565b9250817fffffffffffffffffffffffffffffffffffffffffffffffffffffffffffffffff0483118215151615610fb457610fb3610f36565b5b828202905092915050565b7f4e487b7100000000000000000000000000000000000000000000000000000000600052601260045260246000fd5b6000610ff982610c95565b915061100483610c95565b92508261101457611013610fbf565b5b828204905092915050565b600061102a82610c95565b915061103583610c95565b92508282101561104857611047610f36565b5b828203905092915050565b60006040820190506110686000830185610c86565b6110756020830184610c9f565b9392505050565b61108581610cae565b811461109057600080fd5b50565b6000815190506110a28161107c565b92915050565b6000602082840312156110be576110bd610bf6565b5b60006110cc84828501611093565b91505092915050565b60006020820190506110ea6000830184610c9f565b92915050565b7f496e76616c69642073656c6c6572206164647265737300000000000000000000600082015250565b6000611126601683610e01565b9150611131826110f0565b602082019050919050565b6000602082019050818103600083015261115581611119565b9050919050565b7f5365727669636520616d6f756e74206d7573742062652067726561746572207460008201527f68616e207a65726f000000000000000000000000000000000000000000000000602082015250565b60006111b8602883610e01565b91506111c38261115c565b604082019050919050565b600060208201905081810360008301526111e7816111ab565b9050919050565b7f5365727669636520616c72656164792065786973747320666f7220746865206260008201527f7579657200000000000000000000000000000000000000000000000000000000602082015250565b600061124a602483610e01565b9150611255826111ee565b604082019050919050565b600060208201905081810360008301526112798161123d565b9050919050565b60006060820190506112956000830186610c86565b6112a26020830185610c86565b6112af6040830184610c9f565b94935050505056fea2646970667358221220c6da91d842f5fa6a71037f8eb36723e2e419cfccd0cbcb5e378875e2568a1dc964736f6c63430008090033",
  "linkReferences": {},
  "deployedLinkReferences": {}
}